:1000000036C050C04FC04EC04DC02AC44BC04AC0BD
:1000100049C048C047C046C045C044C043C00000B6
:100020003C42423C0000000000047E000000000052
:1000300064524A440000000024424A340000000098
:100040001018741200000000244A4A320000000018
:1000500038545220000000004422120C000000001E
:10006000344A4A3400000000244A4A340000112473
:100070001FBECFE5D2E0DEBFCDBF10E0A0E6B0E00E
:10008000E2ECFEE002C005900D92A236B107D9F76E
:1000900020E0A2E6B0E001C01D92AB37B207E1F765
:1000A0004DD00DC7ADCFCF92DF92EF92FF92CF939D
:1000B000DF93C2B78091610090916000D0916000A1
:1000C000682F70E0691B71096F5F7F4F072E000C6E
:1000D000880B990BD5D56B017C016C2F70E080E00B
:1000E00090E0CED520E030E040E85BE37DD69B0198
:1000F000AC01C701B60178D695D5862F8D0FDF915B
:10010000CF91FF90EF90DF90CF900895CF93C82FBD
:1001100060E0D8D18CE190E10197F1F700C00000D8
:1001200061E08C2FCF91CEC180E054D18CE190E181
:100130000197F1F700C0000081E04CC1CF93DF933D
:10014000CDB7DEB72E970FB6F894DEBF0FBECDBF8A
:100150009FD380E06FD181E06DD111D31C861B86C7
:100160001A86198618861F821E821D821C821B8297
:100170001A82198298D31E861D86912CA12C50E8D4
:10018000352E6FEB262EB12C812C9E012F5F3F4F19
:1001900079018E010D5F1F4F2C5F3F4FAE01495F0C
:1001A0005F4FBE01675F7F4FCE010B960CD36B850F
:1001B0007C85072E000C880B990B62D520E030E07F
:1001C00040E05AE311D66B017C0109851A856F81E5
:1001D0007885072E000C880B990B52D520E030E073
:1001E00040E05AE301D62B013C0120E030E040E43E
:1001F00050ECC701B601AAD418160CF445C020E093
:1002000030E040EA50ECC701B601EAD587FD3CC0BA
:1002100020E030E0A901C301B201E2D51816A4F52F
:1002200042D32B013C0120E030E040E85FEB692D38
:100230007A2D832D922D8AD4811104C0942CA52C63
:10024000362C272C292D3A2D432D522DB201C301D6
:1002500018D420E030E040EA50E4C2D587FD2CC03D
:1002600080916100B11003C08824839471C0C09054
:100270006000D12CC80ED11CC601959587959E872C
:100280008D878D8543DF79CF20E030E0A901C30160
:10029000B2015CD487FF0AC091E0B91609F458C0D6
:1002A00002DF282F30E03E872D8746C0912CA12CFD
:1002B00020E8322E3FEB232E31E0B3123DC0B801CF
:1002C000110F880B990BDCD420E030E040E05AE3BA
:1002D0008BD52B013C0120E030E040EA50E480D592
:1002E00087FD09C08091610090E0099724F4809116
:1002F00061008F5F16C020E030E040EA50ECC3019F
:10030000B20124D418167CF0809161002091600025
:1003100090E0019730E0281739072CF480916100B4
:10032000815080936100C09061008C2D90E09E8789
:100330008D87BB24B39401C0B12C8D85E7DE882066
:1003400009F423CFF1DE8D85E1DE882483941DCF6F
:10035000912CA12C80E8382E9FEB292EB0CF8EE176
:1003600087BB88B3887E88BB88B3886188BB88B325
:100370008C7F88BB80E18DB908958FB988E09DB1ED
:1003800093609DB9689A8150D1F780E48EB9089541
:100390001F93CF93DF93D82FC62F142FE0DFC09881
:1003A000111105C0C49AB49BFECFC39804C0C39A70
:1003B000B39BFECFC4988D2FE0DF8C2FDEDFC39A76
:1003C000C49AC098DF91CF911F91089570E090E09A
:1003D0000196DECF0F931F93CF93DF93082F13E087
:1003E000C1E0D0E0402F60E070E0CE01D1DF219687
:1003F000C930D105B9F7115099F7DF91CF911F910D
:100400000F9108950F931F93CF93DF93082F13E05D
:10041000C1E0D0E0402F6FE770E0CE01B9DF219658
:10042000C930D105B9F7115099F7DF91CF911F91DC
:100430000F910895CF93C82FCDDF4C2F61E070E06E
:100440008CE090E0A5DF4C2F60E070E089E090E068
:100450009FDF4C2F67E070E08BE090E099DF4C2F3E
:1004600061E070E08AE090E093DF4C2F60E070E0A4
:100470008FE090E08DDF87E893E10197F1F700C00E
:100480000000CF910895E4E6F0E0119280E0EC36B0
:10049000F807D9F70895CF93C82FCC0FCC0FCC0F06
:1004A000F2DFA4E6B0E088E08C0FC03548F4EC2F12
:1004B000F0E0E25EFF4FE491ED93CF5FC813F5CF1C
:1004C000CF9108950F931F93CF93DF93282F30E0A0
:1004D00093E0220F331F9A95E1F72035310534F070
:1004E000862FDF91CF911F910F918CCFD62FD3DF25
:1004F00004E610E0C0E0F80161918F014D2F8C2FD0
:1005000065DFCF5FC830B9F7DF91CF911F910F91B1
:100510000895AF92BF92CF92DF92EF92FF920F9326
:100520001F93CF93DF93CDB7DEB76A01ADB6BEB6EA
:10053000262F30E079014FEFE41AF40A2E5F3F4F87
:10054000EDB7FEB7E21BF30B0FB6F894FEBF0FBE7C
:10055000EDBF0DB71EB70F5F1F4F90ED9183F801F0
:10056000818322E0822F90E0E816F9065CF0D80142
:10057000A80FB91F8C0D9D1DFC01329780818C93B3
:100580002F5FF0CF6E5FC801D2D122E0822F90E0C2
:10059000E816F9065CF0F601E80FF91F3297D8016A
:1005A000A80FB91F8C9180832F5FF0CF0FB6F894FE
:1005B000BEBE0FBEADBEDF91CF911F910F91FF90D8
:1005C000EF90DF90CF90BF90AF9008957F928F9281
:1005D0009F92AF92BF92CF92DF92EF92FF920F93D2
:1005E0001F93CF93DF93CDB7DEB7762E4A01EDB6DA
:1005F000FEB66623B9F1CDB6DEB6262F30E059013E
:1006000042E0A40EB11C2D5F3F4FEDB7FEB7E21BD9
:10061000F30B0FB6F894FEBF0FBEEDBF0DB71EB7BC
:100620000F5F1F4F90ED9183F801818381ED8283ED
:1006300063E0670DC801C6D123E0822F90E0A816C1
:10064000B9065CF0F401E80FF91F3397D801A80F41
:10065000B91F8C9180832F5FF0CF0FB6F894DEBE68
:100660000FBECDBE872D0FB6F894FEBE0FBEEDBEF9
:10067000DF91CF911F910F91FF90EF90DF90CF907E
:10068000BF90AF909F908F907F900895AB0161E0F5
:100690009DCFCF93DF931F92CDB7DEB76983AE01B5
:1006A0004F5F5F4F61E035DF0F90DF91CF9108958D
:1006B000EF92FF920F931F93CF93DF931F92CDB7CB
:1006C000DEB7182FF62EE42E022F1982BE016F5FBF
:1006D0007F4FDCDF882309F14F2D50E04E1951097F
:1006E0004F5F5F4F81E090E002C0880F991FEA944E
:1006F000E2F70197042E01C0880F0A94EAF7202F31
:1007000001C0220F4A95EAF7682F60959981692305
:100710008223682B6983812FBCDF0F90DF91CF91FB
:100720001F910F91FF90EF900895FF920F931F93E9
:10073000CF93DF931F92CDB7DEB7182F062FF42E7D
:10074000BE016F5F7F4FA2DF898161E070E001C071
:10075000660F0A95EAF7FF2011F0682B02C060953A
:1007600068236983812F95DF0F90DF91CF911F91CF
:100770000F91FF90089540E066E08BE6D6CF87EAC0
:1007800091E60197F1F700C00000F5DF83EC99E0F6
:100790000197F1F700C0000021E043E062E08BE642
:1007A00087DF23E043E062E08AE182DF64E089E101
:1007B00070DF23E042E064E08BE17ADF20E042E09A
:1007C00064E08CE175CF8F929F92AF92BF92CF92EF
:1007D000DF92EF92FF920F931F93CF93DF934C0121
:1007E0005B016A01E9014CE650E06EE08BE3EEDE6E
:1007F000ECE6F0E02081818190E0922BD4018D9392
:100800009C932281838190E0922BD5018D939C93C0
:100810002481858190E0922BD6018D939C93208535
:10082000818590E0922B998388832285838590E04F
:10083000922BD8018D939C932485858590E0922BF3
:10084000F70191838083DF91CF911F910F91FF90EA
:10085000EF90DF90CF90BF90AF909F908F900895D2
:100860001F920F920FB60F9211248F939F93809136
:100870006200909163000196909363008093620000
:1008800012BE9F918F910F900FBE0F901F901895E1
:100890001ABC13BE83B7856083BF789412BE89B734
:1008A000826089BF08956091620070916300072E95
:1008B000000C880B990BE4D122E538EB4CE752E4AD
:1008C00093D220E030E040E450E444D10895C09A4F
:1008D000C29ABA9AB89A8FEF8FB98AE28DB980EF2F
:1008E0008EB908958EB98BE297E09A95F1F78DB99C
:1008F000B29BFECF93E09A95F1F700008DB9769BFD
:10090000F3CF87E08A95F1F78FB19FEF9FB9B89A3F
:100910000895C098C29AB29BFECF83E08A95F1F702
:100920000000C09A87E08A95F1F781E008950F935F
:100930001F93CF93DF93EC01162FC9DF81E08093E3
:100940007A00888180FD03C083E080937A00C29A98
:10095000B29BFECF83E08A95F1F70000C09883E058
:100960008A95F1F70000C298C09A0FEF80917A0043
:10097000837081F0C29888818FB980EFB3DFB89817
:100980008EEFB0DF80FD18C080917A008E7F80935B
:100990007A000BC0B89880EFA5DF8883113011F47E
:1009A0000FB901C01FB88EEF9DDF115021961111B4
:1009B000DDCFAFDF81E001C080E0DF91CF911F91FB
:1009C0000F9108950F931F93CF93DF93EC01162F90
:1009D0007EDF81E080937A00C29AB29BFECFC098FE
:1009E00083E08A95F1F70000C298C09A80917A005E
:1009F00080FF32C00EEF010FC2982196FE013197A1
:100A000080818FB980EF6EDFB8988EEF6BDF80FF4B
:100A100002C080E031C08FEF810F801711F0182FD6
:100A2000EBCFC29AB29BFECFC09883E08A95F1F7D4
:100A30000000C298C09AC29888818FB980EF52DFB7
:100A4000B8988EEF4FDF80FDE4CF21961250809151
:100A50007A008E7F80937A000FEFB89880EF42DFA4
:100A60008993113011F40FB901C01FB88EEF3ADF2E
:100A7000115099F74EDF81E0DF91CF911F910F91D7
:100A800008955058BB27AA270ED070C161D130F00D
:100A900066D120F031F49F3F11F41EF456C10EF4DC
:100AA000E095E7FB4CC1E92F72D180F3BA176207DA
:100AB00073078407950718F071F49EF58AC10EF448
:100AC000E0950B2EBA2FA02D0B01B90190010C015E
:100AD000CA01A0011124FF27591B99F0593F50F476
:100AE000503E68F11A16F040A22F232F342F4427CE
:100AF000585FF3CF469537952795A795F0405395C6
:100B0000C9F77EF41F16BA0B620B730B840BBAF095
:100B10009150A1F0FF0FBB1F661F771F881FC2F700
:100B20000EC0BA0F621F731F841F48F48795779514
:100B30006795B795F7959E3F08F0B3CF9395880FCB
:100B400008F09927EE0F979587950895D4D008F46B
:100B500081E008950CD00AC102D140F0F9D030F004
:100B600021F45F3F19F0EBC0511134C1EEC00FD139
:100B700098F39923C9F35523B1F3951B550BBB2764
:100B8000AA2762177307840738F09F5F5F4F220F11
:100B9000331F441FAA1FA9F333D00E2E3AF0E0E80A
:100BA00030D091505040E695001CCAF729D0FE2F56
:100BB00027D0660F771F881FBB1F261737074807E8
:100BC000AB07B0E809F0BB0B802DBF01FF2793589E
:100BD0005F4F2AF09E3F510568F0B1C0FBC05F3FF8
:100BE000ECF3983EDCF3869577956795B795F79586
:100BF0009F5FC9F7880F911D9695879597F908957E
:100C0000E1E0660F771F881FBB1F62177307840719
:100C1000BA0720F0621B730B840BBA0BEE1F88F728
:100C2000E0950895BCD088F09F5790F0B92F992790
:100C3000B751A0F0D1F0660F771F881F991F1AF0E7
:100C4000BA95C9F712C0B13081F0C3D0B1E00895B0
:100C5000C0C0672F782F8827B85F39F0B93FCCF331
:100C6000869577956795B395D9F73EF490958095DD
:100C7000709561957F4F8F4F9F4F0895E89409C0FD
:100C800097FB3EF490958095709561957F4F8F4FBF
:100C90009F4F9923A9F0F92F96E9BB279395F695D5
:100CA000879577956795B795F111F8CFFAF4BB0F53
:100CB00011F460FF1BC06F5F7F4F8F4F9F4F16C0B7
:100CC000882311F096E911C0772321F09EE8872F41
:100CD000762F05C0662371F096E8862F70E060E0FD
:100CE0002AF09A95660F771F881FDAF7880F969576
:100CF000879597F90895990F0008550FAA0BE0E81A
:100D0000FEEF16161706E807F907C0F012161306CD
:100D1000E407F50798F0621B730B840B950B39F40D
:100D20000A2661F0232B242B252B21F408950A2673
:100D300009F4A140A6958FEF811D811D089597F9B3
:100D40009F6780E870E060E008959FEF80EC089571
:100D500000240A941616170618060906089500249A
:100D60000A9412161306140605060895092E039414
:100D7000000C11F4882352F0BB0F40F4BF2B11F488
:100D800060FF04C06F5F7F4F8F4F9F4F089557FDE7
:100D90009058440F551F59F05F3F71F04795880FE9
:100DA00097FB991F61F09F3F79F087950895121680
:100DB00013061406551FF2CF4695F1DF08C016162C
:100DC00017061806991FF1CF8695710561050894DD
:100DD0000895E894BB2766277727CB0197F90895F4
:100DE0008ADF08F48FEF08950AD0C0CFB1DF28F072
:100DF000B6DF18F0952309F0A2CFA7CFEBCFC7DF5E
:100E0000A8F39923D9F35523C9F3950F50E0551F43
:100E1000AA27EE27FF27BB2700240894679520F414
:100E2000E20FF31FB41F0A1E220F331F441FAA1F15
:100E30006695A9F7779530F4F30FB41F0A1E121EBA
:100E400008F46395330F441FAA1F221F769599F764
:100E5000879520F4B40F0A1E121E631F440FAA1FA9
:100E6000221F331F8695A9F7862F712D602D11241F
:100E70009F5750408AF0E1F088234AF0EE0FFF1FA1
:100E8000BB1F661F771F881F91505040A9F79E3FD8
:100E9000510570F054CF9ECF5F3FECF3983EDCF3EA
:100EA000869577956795B795F795E7959F5FC1F715
:100EB000FE2B880F911D9695879597F90895F894C4
:020EC000FFCF62
:020EC200010627
:00000001FF
