S01700004763634170706C69636174696F6E312E737265635B
S11300003AC049C048C047C046C045C044C043C0C8
S113001042C041C040C03FC03EC03DC03CC03BC0E8
S11300203AC039C038C000003C42423C00000000E5
S113003000047E000000000064524A4400000000F6
S113004024424A340000000010187412000000001A
S1130050244A4A32000000003854522000000000B4
S11300604422120C00000000344A4A34000000000C
S1130070244A4A34000011241FBECFE5D4E0DEBF79
S1130080CDBF20E0A0E6B0E001C01D92A836B207C3
S1130090E1F70CD0C5C2B4CF87B38C6287BB81B300
S11300A0806C81BB8DB182658DB90895F5DF80E0E8
S11300B070D081E06ED0B3D1C0E0D0E061E08C2F8D
S11300C0ADD02196CA30D10514F0C0E0D0E02FE9BC
S11300D086E891E0215080409040E1F700C00000A4
S11300E0EDCF8FB9779BFECF0895CF93C62F98B3EA
S11300F0977F98BB98B39B7F98BB411109C092B37B
S1130100906892BB879BFECF92B39F7B92BB08C043
S113011092B3906492BB869BFECF92B39F7792BBBF
S1130120E0DF8C2FDEDF88B3846088BB82B3806419
S113013082BB82B3806882BB88B3877F88BBCF9140
S113014008958F5FD2DF08951F93CF93DF93D82F45
S113015010E00AC0CF5F4D2F60E08C2FC6DF01C0D6
S1130160C0E0C830B8F31F5F1330D0F3DF91CF91F4
S11301701F910895CF93DF93D82FC0E005C0CF5FC0
S11301804D2F6FE78C2FB1DFC830C8F3DF91CF91CB
S11301900895CF93C82FD8DF4C2F61E08CE0A5DF02
S11301A04C2F60E089E0A1DF4C2F67E08BE09DDFFE
S11301B04C2F61E08AE099DF4C2F60E08FE095DFFF
S11301C087E893E10197F1F700C00000CF9108950B
S11301D080E006C0E82FF0E0E05AFF4F10828F5F06
S11301E08830C0F30895CF93C82FCC0FCC0FCC0F19
S11301F0EFDF80E00DC0282F30E0EC2FF0E0EA5D67
S1130200FF4FE491D901A05ABF4FEC938F5FCF5FAA
S1130210883010F4C03578F3CF910895CF93DF93ED
S1130220D62F282F30E0220F331F220F331F220F27
S1130230331F203531051CF0862F9CDF0EC0D3DF21
S1130240C0E009C0EC2FF0E0E05AFF4F4D2F608171
S11302508C2F77DFCF5FC830A8F3DF91CF9108955B
S1130260FF920F931F93CF93DF93662349F18A0183
S1130270D62FC82F80ED01D18C2F6BD183E08A95C6
S1130280F1F7000081EDF9D0F12CC0E015C0F39432
S11302902C2F30E08D2F90E001972817390731F487
S11302A09FD1F801EC0FF11D808305C079D1F801CD
S11302B0EC0FF11D8083CF5FCD1748F333D101C01C
S11302C0F12C8F2DDF91CF911F910F91FF90089505
S11302D0AB0161E0C5DF08950F931F93CF93DF93C4
S11302E0662391F08A01D62FC82F80EDC6D08C2FBB
S11302F030D1C0E006C0F801EC0FF11D808129D196
S1130300CF5FCD17C0F30ED1DF91CF911F910F9125
S11303100895CF93DF931F92CDB7DEB76983AE0103
S11303204F5F5F4F61E0D8DF0F90DF91CF91089569
S1130330EF92FF920F931F93CF93DF931F92CDB74A
S1130340DEB7442381F1E22E142F062FF82E1982F2
S1130350BE016F5F7F4FBCDF882329F181E090E00D
S1130360012E02C0880F991F0A94E2F70197402FCB
S113037050E0411B51094F5F5F4F042E02C0880FAC
S1130380991F0A94E2F72E2D30E002C0220F331F8A
S11303904A95E2F72823809569818623622F682B8A
S11303A069838F2DB6DF0F90DF91CF911F910F914D
S11303B0FF90EF900895FF920F931F93CF93DF93D5
S11303C01F92CDB7DEB7182F062FF42EBE016F5F34
S11303D07F4F7EDFFF2051F061E070E002C0660FC6
S11303E0771F0A95E2F78981682B0AC061E070E003
S11303F002C0660F771F0A95E2F76095898168232A
S11304006983812F86DF0F90DF91CF911F910F9128
S1130410FF90089540E066E08BE6CDDF089529D093
S113042083E08A95F1F7000087EA91E60197F1F7F6
S113043000C00000EFDF83EC99E00197F1F700C002
S1130440000020E043E062E08BE672DF23E043E05B
S113045062E08AE16DDF64E089E15BDF23E042E092
S113046064E08BE165DF20E042E064E08CE160DF82
S1130470089511B88CE080B908950F931F9394EAFE
S113048096BF4FEF50E060E070E002C0B901A801F0
S113049006B607FC0CC08A019B0101501109210911
S11304A03109452B462B472B89F7B901A801452B68
S11304B0462B472B59F191B1987F983011F0903128
S11304C039F583B984E886BF8FEF90E0A0E0B0E00F
S11304D002C0DB01CA0106B607FC0CC0AC01BD01B9
S11304E04150510961097109892B8A2B8B2B89F79A
S11304F0DB01CA01892B8A2B8B2B61F081B1887FA8
S1130500883151F0803451F480E009C081E007C0A3
S113051081E005C081E003C080E001C081E01F915B
S11305200F91089584E986BF8FEF90E0A0E0B0E0DA
S113053002C0DB01CA0106B604FE0AC0AC01BD015B
S11305404150510961097109892B8A2B8B2B89F739
S1130550089583B984E886BF8FEF90E0A0E0B0E00F
S113056002C0DB01CA0106B607FC0CC0AC01BD0128
S11305704150510961097109892B8A2B8B2B89F709
S1130580DB01CA01892B8A2B8B2B31F081B1887F47
S1130590883221F081E0089581E0089580E0089593
S11305A084EC86BF8FEF90E0A0E0B0E002C0DB01F6
S11305B0CA0106B607FC0CC0AC01BD01415051098B
S11305C061097109892B8A2B8B2B89F7DB01CA01FD
S11305D0892B8A2B8B2B11F083B1089580E0089529
S11305E084E886BF8FEF90E0A0E0B0E002C0DB01BA
S11305F0CA0106B607FC0CC0AC01BD01415051094B
S113060061097109892B8A2B8B2B89F7DB01CA01BC
S1130610892B8A2B8B2B11F083B1089580E00895E8
S1070620F894FFCF78
S9030000FC
